:100000000C9436030C9453030C9453030C94530335
:100010000C9453030C9453030C9453030C94530308
:100020000C9453030C9453030C9453030C945303F8
:100030000C9453030C9453030C9453030C945303E8
:100040000C9453030C9453030C9453030C945303D8
:100050000C9453030C9453030C9453030C945303C8
:100060000C9453030C9453030C9453030C945303B8
:100070000C9453030C9453030C945303000000009E
:1000800000000000183C3C1818001800363600002C
:100090000000000014143E143E1414001C36307C82
:1000A00030307E0066640C0818133300386C6C39ED
:1000B0006E6E3B0018180000000000000C1C1818A1
:1000C000181C0C00181C0C0C0C1C1800082A1C1402
:1000D000220000000008083E0808000000000000A0
:1000E000001818300000003E000000000000000072
:1000F000001818000C0C1C183830300018246E76CC
:10010000662418001838181818183C003C66060CAD
:1001100018307E003C66061C06663C000E1E3666E5
:100120007F0606007E60607C06663C003C60607C6A
:1001300066663C007E060E0C0C1818003C66663C99
:1001400066663C003C66663E06060600000018181F
:1001500000181800000018180018183000061C308D
:100160001C06000000003E003E00000000301C069F
:100170001C3000003C660C18001818001C224D555D
:100180004E201E001C3E36367F6363007C66667C14
:1001900066667C003C66606060663C007C66666605
:1001A00066667C007E60607C60607E007E60607C55
:1001B000606060003C6660606E663C006666667EFD
:1001C000666666003C18181818183C001E0C0C0CCB
:1001D0000C6C3800666C7870786C660060606060EB
:1001E00060607E0063777F6B6363630066767E7E0C
:1001F0006E6666003C66666666663C007C66667C8B
:10020000606060003C666666666E3C067C66667C86
:10021000786C66003C66703C0E663C007E181818D0
:10022000181818006666666666663C0063633636B4
:100230001C1C08006363636B6B36360066663C18F3
:100240003C6666006666663C181818007E060C1848
:1002500030607E003C30303030303C003030381878
:100260001C0C0C003C0C0C0C0C0C3C000814220068
:10027000000000000000000000003E000C0602002C
:100280000000000000001E3636361F0030303C36BD
:1002900036363C0000001C3630361C0006061E3682
:1002A00036361F0000001C363C301C000E18181893
:1002B0003C18180000001E36361E061C30303C3636
:1002C000363636000018001818181800000C000CFC
:1002D0000C0C2C183030363C3C36360018181818E8
:1002E00018180C000000766B6B6B630000003C3646
:1002F0003636360000001C3636361C0000003C3610
:1003000036363C3000001E3636361E0600003C32C3
:100310003030300000001E301C063C0000183C1835
:1003200018180C000000363636361C000000363631
:10033000361C08000000636B6B3E14000000361C86
:10034000081C360000003636361E061C00003E0C27
:1003500018303E000C08183018080C00080808086F
:100360000808080018080C060C081800000030499E
:10037000060000000000000000000000001818182F
:1003800008001800363600000000000000367F36F6
:10039000367F36001C36307C30307E0066640C08B8
:1003A00018133300386C6C396E6E3B00181800005F
:1003B000000000000C1C1818181C0C00181C0C0C59
:1003C0000C1C1800082A1C14220000000008083E1B
:1003D0000808000000000000001818300000003E6F
:1003E0000000000000000000001818000C0C1C1891
:1003F00038303000003C66766E663C0000183818D5
:1004000018183C00003C660E3C707E00003C661CE8
:1004100006663C00001C2C4C4C7E0C00007C607C72
:1004200006663C00003C607C66663C00007E060C74
:1004300018181800003C663C66663C00003C666686
:100440003E063C000000181800181800000018189C
:100450000018183000061C301C06000000003E008A
:100460003E00000000301C061C300000007CCECE98
:10047000180018001C224D554E201E0000387CE646
:10048000FEE6E60000FCE6FCE6E6FC00007CE6E0BA
:10049000E0E67C0000FCE6E6E6E6FC0000FEE0FCB0
:1004A000E0E0FE0000FEE0FCE0E0E000007CE6E0D2
:1004B000EEE67C0000E6E6FEE6E6E600007C383884
:1004C00038387C0000FE1C1CDCDC780000E6ECF810
:1004D000F8ECE60000E0E0E0E0E6FE0000C6EEFE3C
:1004E000D6C6C60000E6F6FEEEE6E600007CE6E6CE
:1004F000E6E67C0000FCE6E6FCE0E000007CE6E6E8
:10050000EEEE7C0E00FCE6E6FCECE600007CE27C15
:100510000EEE7C0000FE38383838380000E6E6E69B
:10052000E6E67C0000E6E6E6E67C380000C6C6D6D5
:10053000D6EEC60000EEF4783C5EEE0000C6EE7C1F
:100540003838380000FE1C3870E0FE003C30303097
:1005500030303C00303038181C0C0C003C0C0C0CBB
:100560000C0C3C00081422000000000000000000F9
:1005700000003E000C0602000000000000007CECC1
:10058000ECEC760000E0E0FCEEEEFC0000007CEE1F
:10059000E0EE7C00000E0E7EEEEE7E0000007CEEB3
:1005A000FEE07E00003C7670FE707000007CEEEE97
:1005B0007E0EEE7C00E0E0FCEEEEEE00003800384F
:1005C00038383800001C001C1CDCDC7800E0E0E659
:1005D000F8ECE60000783838383838000000FCD6EF
:1005E000D6D6D6000000FCE6E6E6E60000007CE693
:1005F000E6E67C000000FCEEEEFCE0E000007EEEB3
:10060000EE7E0E0E0000EEF8F0E0E00000007EE06E
:10061000FE0EFC00007070FE70763C000000EEEEF6
:10062000EEEE7E000000C6C6EE7C38000000C6D6A6
:10063000D6EEC6000000EE74385CEE000000C66E18
:100640003C3870E00000FE1C3870FE000C081830CA
:1006500018080C00080808080808080018080C0604
:100660000C081800000030490600000011241FBECD
:10067000CFEFD0E1DEBFCDBF12E0A0E0B1E0E0EC13
:10068000FCE402C005900D92A236B107D9F712E042
:10069000A2E6B2E001C01D92A336B107E1F70E94C5
:1006A000B61C0C945E260C94000090E0887F90703D
:1006B00025E0880F991F2A95E1F770E06C7F707034
:1006C000682B792B83E0660F771F8A95E1F74695B3
:1006D0004695469550E0642B752BCB0108952C98D8
:1006E00088B92B982B9A2C9A089588B92B982B9A15
:1006F000089598B92B982B9A88B92B982B9A08951E
:100700002D9886B12D9A08952D9896B12D9A2D98F1
:1007100086B12D9A392F20E0280F311DC901089587
:10072000181614F4299A0895882311F42998089525
:1007300085B192E0892785B908952E982E9A08955B
:10074000DC019C01472F87C0808188B92B982B9AA8
:10075000818188B92B982B9A828188B92B982B9A02
:10076000838188B92B982B9A848188B92B982B9AEE
:10077000858188B92B982B9A868188B92B982B9ADA
:10078000878188B92B982B9A808588B92B982B9ACA
:10079000818588B92B982B9A828588B92B982B9ABA
:1007A000838588B92B982B9A848588B92B982B9AA6
:1007B000858588B92B982B9A868588B92B982B9A92
:1007C000878588B92B982B9A808988B92B982B9A82
:1007D000818988B92B982B9A828988B92B982B9A72
:1007E000838988B92B982B9A848988B92B982B9A5E
:1007F000858988B92B982B9A868988B92B982B9A4A
:10080000878988B92B982B9A808D88B92B982B9A39
:10081000818D88B92B982B9A828D88B92B982B9A29
:10082000838D88B92B982B9A848D88B92B982B9A15
:10083000858D88B92B982B9A868D88B92B982B9A01
:10084000878D88B92B982B9AB096915009F07CCF60
:10085000415020503E4F442319F0F90191E1F5CF6A
:10086000972F990F80E0FD01E80FF91F05C08191D6
:1008700088B92B982B9A61506623C9F70895EF9297
:10088000FF920F931F93CF93DF93162F072F7A01B9
:10089000C62FD72F0E946F03212F302FC9019C0133
:1008A0004F2D87C0818188B92B982B9A808188B978
:1008B0002B982B9A838188B92B982B9A828188B99F
:1008C0002B982B9A858188B92B982B9A848188B98B
:1008D0002B982B9A878188B92B982B9A868188B977
:1008E0002B982B9A818588B92B982B9A808588B96B
:1008F0002B982B9A838588B92B982B9A828588B957
:100900002B982B9A858588B92B982B9A848588B942
:100910002B982B9A878588B92B982B9A868588B92E
:100920002B982B9A818988B92B982B9A808988B922
:100930002B982B9A838988B92B982B9A828988B90E
:100940002B982B9A858988B92B982B9A848988B9FA
:100950002B982B9A878988B92B982B9A868988B9E6
:100960002B982B9A818D88B92B982B9A808D88B9DA
:100970002B982B9A838D88B92B982B9A828D88B9C6
:100980002B982B9A858D88B92B982B9A848D88B9B2
:100990002B982B9A878D88B92B982B9A868D88B99E
:1009A0002B982B9AB096915009F07CCF4150205053
:1009B0003E4F442319F0F90191E1F5CF4E2D9F2DC3
:1009C000990F80E0FE01E80FF91F0AC0818188B904
:1009D0002B982B9A808188B92B982B9A415032966C
:1009E0004423A1F7DF91CF911F910F91FF90EF90DA
:1009F0000895FF920F931F93062FF42E152F0E9438
:100A00006F0308B923C02B982B9A2B982B9A2B98FD
:100A10002B9A2B982B9A2B982B9A2B982B9A2B98B6
:100A20002B9A2B982B9A2B982B9A2B982B9A2B98A6
:100A30002B9A2B982B9A2B982B9A2B982B9A2B9896
:100A40002B9A2B982B9A8150F1F61150112311F00B
:100A500081E1F9CF4F2D03C02B982B9A41504423AD
:100A6000D9F71F910F91FF900895EF92FF920F9386
:100A70001F93F62E072FE42E152F0E946F0364C0DC
:100A800008B92B982B9AF8B82B982B9A08B92B9861
:100A90002B9AF8B82B982B9A08B92B982B9AF8B860
:100AA0002B982B9A08B92B982B9AF8B82B982B9A3D
:100AB00008B92B982B9AF8B82B982B9A08B92B9831
:100AC0002B9AF8B82B982B9A08B92B982B9AF8B830
:100AD0002B982B9A08B92B982B9AF8B82B982B9A0D
:100AE00008B92B982B9AF8B82B982B9A08B92B9801
:100AF0002B9AF8B82B982B9A08B92B982B9AF8B800
:100B00002B982B9A08B92B982B9AF8B82B982B9ADC
:100B100008B92B982B9AF8B82B982B9A08B92B98D0
:100B20002B9AF8B82B982B9A08B92B982B9AF8B8CF
:100B30002B982B9A08B92B982B9AF8B82B982B9AAC
:100B4000815009F09DCF1150112311F081E1F8CFB0
:100B50004E2D07C008B92B982B9AF8B82B982B9AD2
:100B600041504423B9F71F910F91FF90EF900895E2
:100B7000FF920F931F938B01F42E0E946F03C80105
:100B80006F2D70E00E94A0031F910F91FF900895B8
:100B9000FF920F931F93162F072FF42E0E946F03BF
:100BA00018B817B82D982D9A212F302FC901FC01A4
:100BB00090E005C02D9886B12D9A81939F5F9F1577
:100BC000C8F38FEF87B91F910F91FF900895AF92EF
:100BD000BF92CF92DF92EF92FF920F931F937B0110
:100BE0008C0159016A018AE20E946F03C7010E94C9
:100BF0007903C5010E9479038BE20E946F03C8014B
:100C00000E947903C6010E9479031F910F91FF9002
:100C1000EF90DF90CF90BF90AF9008951F93182F63
:100C200086E30E946F03113049F0113028F0123032
:100C300039F0133059F406C088E405C088E203C0D7
:100C400088E801C088EE88B92B982B9A109362022D
:100C50001F9108956F927F928F929F92AF92BF9251
:100C6000CF92DF92EF92FF920F931F93CF93DF9378
:100C7000D82E4A015B013901BA01F50180528F3546
:100C800008F04BC08C2D90E043E0880F991F4A95E7
:100C9000E1F7615070409B01280F391F3197AF0178
:100CA000480F591FC501B4010E94E705CD2DD0E0C2
:100CB000A09733E0CC0FDD1F3A95E1F7CE0DDF1D95
:100CC0008CE20E946F0380E090E0FE01E80FF91FC4
:100CD000749150E019C0662329F078B82B982B9AAC
:100CE00068B804C018B92B982B9A08B92B982B9A7E
:100CF0002F5F2C1580F34F5F483029F0369520E0A8
:100D0000632F6723F6CF5F5F5C1518F440E030E88F
:100D1000F6CF019688309105C1F6DF91CF911F91F2
:100D20000F91FF90EF90DF90CF90BF90AF909F908A
:100D30008F907F906F9008952F923F924F925F9285
:100D40006F927F928F929F92AF92BF92CF92DF92DB
:100D5000EF92FF920F931F93DF93CF93CDB7DEB740
:100D600027970FB6F894DEBF0FBECDBF9A83898355
:100D7000752E3C832B83180127016C2C842F4D8307
:100D80008C2C992453E0880C991C5A95E1F7972DE7
:100D90009F838E83262F372FC9015C01DD24D394D6
:100DA0001BC08A3041F4A80CB91C8D81972D9C0181
:100DB0003F832E8310C04E815F81B5012B813C8122
:100DC00081017201C62C0E942A068E819F81880DA6
:100DD000991D9F838E83D3949D2D9150E981FA8133
:100DE000E90FF11D80818823E1F6892F27960FB640
:100DF000F894DEBF0FBECDBFCF91DF911F910F9151
:100E0000FF90EF90DF90CF90BF90AF909F908F902A
:100E10007F906F905F904F903F902F9008952F920A
:100E20003F924F925F926F927F928F929F92AF927A
:100E3000BF92CF92DF92EF92FF920F931F93DF93B7
:100E4000CF93CDB7DEB727970FB6F894DEBF0FBEAE
:100E5000CDBF3C01552E3A8329831C830B83170198
:100E60004C2C842F4D83462F8C2C992463E0880CC6
:100E7000991C6A95E1F7952F9F838E83242F372F36
:100E8000C9015C0106C08E819F81880D991D9F83D9
:100E90008E83F3010894611C711CD4909AE0D916DA
:100EA00041F4A80CB91C8D81952D9C013F832E83A4
:100EB000F0CF8D2D4E815F81B50129813A810B8163
:100EC0001C817101C42C0E942A06DD20E1F680E01D
:100ED00027960FB6F894DEBF0FBECDBFCF91DF913E
:100EE0001F910F91FF90EF90DF90CF90BF90AF9048
:100EF0009F908F907F906F905F904F903F902F903A
:100F000008953F924F925F926F927F928F929F923D
:100F1000AF92BF92CF92DF92EF92FF920F931F9307
:100F2000CF93DF93490138012701DC2C5A01EB01F3
:100F3000982F9F7082958F709A3018F0F7E33F2EAC
:100F400002C0E0E33E2E390E8A3010F0895C01C009
:100F5000805DA501BE01940183017201CD2C0E9428
:100F60002A068D2D90E073E0880F991F7A95E1F79E
:100F7000AC014A0D5B1DBE01832D94010E942A061F
:100F800082E0DF91CF911F910F91FF90EF90DF9062
:100F9000CF90BF90AF909F908F907F906F905F9019
:100FA0004F903F900895EF92FF920F931F938B0104
:100FB0009C017A01A90198010E94E7058CE20E9438
:100FC0006F03C7010E9479031F910F91FF90EF906B
:100FD00008952F923F924F925F926F927F928F92DD
:100FE0009F92AF92BF92CF92DF92EF92FF920F93B8
:100FF0001F93DF93CF93CDB7DEB729970FB6F89441
:10100000DEBF0FBECDBF1D830C8379019A01DB01CA
:10101000AE19BF09B7FF03C0B095A195BF4FFC0142
:10102000E21BF30BF7FF03C0F095E195FF4FAE17FE
:10103000BF0744F4FB0199878887A701290121E0B4
:101040002B8306C0FC0179876887A90127011B82D1
:10105000888599854816590640F4CA01AF01FC01FC
:10106000C2014884598499878887E417F50710F0EE
:101070008FEF01C081E01201A885B9852A1A3B0AC9
:1010800037FE04C030942194310833949A012E1B0A
:101090003F0B3A83298337FF05C0309521953F4F99
:1010A0003A8329833F0188249924A82FBB27A7FDD1
:1010B000B095BF83AE8327C0BB81BB2331F07301E2
:1010C00008851985C801B70105C06301A884B984E2
:1010D000C601B5014C815D810E94D307E981FA8187
:1010E0008E0E9F1EC401880F991F8215930534F040
:1010F0002E813F81620E731E821893088885998520
:10110000019699878887A885B9854A165B06A0F657
:1011100029960FB6F894DEBF0FBECDBFCF91DF91F9
:101120001F910F91FF90EF90DF90CF90BF90AF9005
:101130009F908F907F906F905F904F903F902F90F7
:101140000895AF92BF92CF92DF92EF92FF920F93EA
:101150001F93CF93DF935801DC01FA01261737075D
:1011600018F469018B0102C06B018901EA17FB07C2
:1011700018F47F01ED0102C07D01EF01B601C70146
:101180009801AE010E94E7052196CE19DF09BE0144
:1011900080E090E00F5F1F4F0C191D09980140E09F
:1011A00050E00E943E259B01AC01203080E03807D2
:1011B00081E0480780E0580760F0A9014F5F5F4F6A
:1011C0008CE2B5010E9435058CE3B5014FEF5FEF6E
:1011D00003C08CE2B501A9010E943505DF91CF91D2
:1011E0001F910F91FF90EF90DF90CF90BF90AF9045
:1011F0000895CF93DF93EC018091620280FF09C0D4
:1012000060E070E080E090E02FE331E04FEE50E0EE
:1012100008C060E070E080E090E02FEE30E04FE347
:1012200051E00E94E7058CE2BE0140E050E80E94D8
:1012300035058CE3BE0140E05CEA0E943505DF9194
:10124000CF9108958F929F92AF92BF92CF92DF92EB
:10125000EF92FF920F931F93CF93DF934C01CB013B
:10126000BA01DE2C58018901CA18D21AEC2CFF24CD
:101270009701260F371FCD2DD0E0AE01480F591F23
:101280000E94E70597012F5F3F4FF4014081518194
:10129000842F90E06481758128173907BCF0000F16
:1012A000111F029FC001039F900D129F900D1124EA
:1012B000680F791F2196C29FA001C39F500DD29F36
:1012C000500D11248CE20E943F0438C0049FE001BD
:1012D000059FD00D149FD00D1124CA0DDB1DCC0F1E
:1012E000DD1FC60FD71F1D2D1E5F8CE20E946F03EE
:1012F0004C2D4E5FC3946C2D70E0660F771F9701E5
:101300002095309519C0942FFE0109C0818188B9BC
:101310002B982B9A808188B92B982B9A32969150D2
:10132000A9F7C60FD71FF40180819181820F931F07
:10133000880F991FC80FD91F115029F7DF91CF913E
:101340001F910F91FF90EF90DF90CF90BF90AF90E3
:101350009F908F9008953F924F925F926F927F92ED
:101360008F929F92AF92BF92CF92DF92EF92FF92B5
:101370000F931F93CF93DF93EC013A014B01322E71
:10138000D501F6012701580121E0321641F4CE01C2
:10139000980187016D017F010E94220979C0FA2E10
:1013A000F418DC2CD01AE880EE0C2F2D30E02F5FE3
:1013B0003F4FC22ECC0C032D10E0D40111978D2D80
:1013C00090E00196809FF001819FF00D909FF00DBD
:1013D0001124BA0161507040029FC001039F900D1B
:1013E000129F900D11249B01280F391FAD014E0F44
:1013F0005F1FC401B3010E94E705888199819C01A8
:10140000A29EC001A39E900DB29E900D1124840D4A
:10141000951D880F991F0C80DD81C02DC80FD91F25
:1014200032E0D30E8CE20E946F0352E0B52EBF0C67
:10143000F3942F2D30E0220F331F2C193109209FF8
:10144000B001219F700D309F700D11246E0D711D24
:101450001AC0AB2DFA010CC0818188B92B982B9A48
:10146000808188B92B982B9A91509923A9F73296AD
:10147000A15011F0932DF9CF420F531FB150BB2350
:1014800041F7C60FD71FDA9419F0AE01B32DF7CF8D
:10149000DF91CF911F910F91FF90EF90DF90CF9050
:1014A000BF90AF909F908F907F906F905F904F9084
:1014B0003F9008952F923F924F925F926F927F924A
:1014C0008F929F92AF92BF92CF92DF92EF92FF9254
:1014D0000F931F93DF93CF93CDB7DEB7A7970FB6C8
:1014E000F894DEBF0FBECDBF382F192F4A015B0124
:1014F000322EDA01B50143E0421720F052E0251701
:1015000040F53BC087E08217A8F49BE0921790F16A
:10151000832F912F9C018901F901428053806080C3
:101520007180448155815FA34EA3CC24DD24EE2439
:10153000FF243BC0832F9C017901F9014280538035
:1015400060807180448155815FA34EA3CC24DD244B
:101550002AC0E82FF92F42805380608071808481F7
:1015600095819FA38EA397819DA346814CA351850E
:101570005BA32084CC24DD2414C09C016901F90103
:101580004280538060807180448155815FA34EA367
:10159000649CC001659C900D749C900D11249AA3CD
:1015A00089A3EE24FF2400E010E011979D01260D91
:1015B000371D119661507040AB01440D551D6F5F92
:1015C0007F4F4D015B01C501B4010E94E7058CE22C
:1015D0000E946F0395E0391609F44DC29315A8F0E7
:1015E000E2E03E1669F1E31540F0332009F42FC420
:1015F000F1E03F1609F038C40CC443E0341619F189
:1016000054E0351609F030C48CC288E0381609F46D
:1016100011C1831548F096E0391609F4BDC1E7E021
:101620003E1609F021C449C1FAE03F1609F462C030
:101630003F1608F4BCC04BE0341609F015C406C0D0
:1016400020E030E0DFC320E030E04BC3F80126812A
:101650003781DE011196AE014F5D5F4FF901849134
:1016600031962E5F3F4FE491FE2FE0E090E08E2B0D
:101670009F2B8D939D93A417B50781F7649C400120
:10168000659C900C749C900C11245401B694A79402
:10169000CEA0DFA075013E010894611C711C1FC023
:1016A000F60104910894C11CD11CE02FE295EF7063
:1016B000F0E0EE0FFF1FE60DF71D808191810E9483
:1016C00079030F7010E0000F111F060D171DF801B0
:1016D000808191810E9479030894E108F108E11466
:1016E000F104F1F6EEA1FFA1EA0DFB1D80FEBCC3E3
:1016F000E49151C0F80126813781DE011196AE01D7
:101700004F5D5F4FF901849131962E5F3F4FE49119
:10171000FE2FE0E090E08E2B9F2B8D939D93A417DE
:10172000B50781F7649C4001659C900C749C900CFB
:1017300011245401B694A794CEA0DFA075013E01F8
:101740000894611C711C1DC0F60101916F01E02F0E
:10175000E295EF70F0E0EE0FFF1FE60DF71D8081C0
:1017600091810E9479030F7010E0000F111F060D88
:10177000171DF801808191810E9479030894E10886
:10178000F108E114F10401F7EEA1FFA1EA0DFB1D40
:1017900080FE6AC3E081E295EF70F0E0EE0FFF1F7C
:1017A000EC0FFD1F818192810E9479035DC3F801D6
:1017B000A680B780649C1001659C300C749C300C32
:1017C0001124410196948794CEA0DFA074011FC01C
:1017D000F60104910894C11CD11CE02FE295EF7032
:1017E000F0E0EE0FFF1FEA0DFB1D808191810E944A
:1017F00079030F7010E0000F111F0A0D1B1DF80177
:10180000808191810E9479030894E108F108E11434
:10181000F104F1F6EEA1FFA1E80DF91D20FE24C3AD
:10182000849182958F7090E0880F991FA80EB91E41
:10183000F50140C0F801C680D780649C1001659C0A
:10184000300C749C300C1124410196948794AEA006
:10185000BFA074011DC0F50101915F01E02FE29569
:10186000EF70F0E0EE0FFF1FEC0DFD1D8081918108
:101870000E9479030F7010E0000F111F0C0D1D1D49
:10188000F801808191810E9479030894E108F108B0
:10189000E114F10401F7EEA1FFA1E80DF91D20FE0E
:1018A000E3C2808182958F7090E0880F991FC80EE7
:1018B000D91EF6018081918177CFF701268137818A
:1018C000DE011196AE014F5D5F4FF90184913196B3
:1018D0002E5F3F4FE491FE2FE0E090E08E2B9F2B98
:1018E0008D939D93A417B50781F7649C7001659C47
:1018F000F00C749CF00C11244E010894811C911C76
:1019000046C00894E108F108EEA1FFA18491E82FF8
:10191000E295EF70282F2F7051F4F0E0EE0FFF1FCB
:10192000E80DF91D808191810E9479032AC0A22EC1
:10193000BB248E2F90E0EA14FB0498F4FE2CF39461
:101940008C01000F111F080D191D06C0F8018081C0
:1019500091810E947903FA94FF20C1F7EE24FF24BD
:1019600010C0D22ED3948C01000F111F080D191D29
:10197000F801808191810E947903DA94C9F7EA180D
:10198000FB084EA15FA14F5F5F4F5FA34EA3E11421
:10199000F10409F0B6CF68C2F70126813781DE0174
:1019A0001196AE014F5D5F4FF901849131962E5F24
:1019B0003F4FE491FE2FE0E090E08E2B9F2B8D9324
:1019C0009D93A417B50781F7649C7001659CF00C8A
:1019D000749CF00C11244E010894811C911C46C08B
:1019E0000894E108F108EEA1FFA18081E82FE295BB
:1019F000EF70282F2F7051F4F0E0EE0FFF1FE80D6D
:101A0000F91D808191810E9479032AC0A22EBB24F6
:101A10008E2F90E0EA14FB0498F4FE2CF3948C01D2
:101A2000000F111F080D191D06C0F801808191815A
:101A30000E947903FA94FF20C1F7EE24FF2410C01E
:101A4000D22ED3948C01000F111F080D191DF8011F
:101A5000808191810E947903DA94C9F7EA18FB0822
:101A60004EA15FA14F5F5F4F5FA34EA3E114F1044E
:101A700009F0B6CFF9C1F70186809780649C7001A8
:101A8000659CF00C749CF00C112446C00894E1088D
:101A9000F108EEA1FFA18491E82FE295EF70282FC5
:101AA0002F7051F4F0E0EE0FFF1FE80DF91D80815B
:101AB00091810E9479032AC0A22EBB248E2F90E030
:101AC000EA14FB0498F4FE2CF3948C01000F111F10
:101AD000080D191D06C0F801808191810E947903CB
:101AE000FA94FF20C1F7EE24FF2410C0D22ED39425
:101AF0008C01000F111F080D191DF80180819181C3
:101B00000E947903DA94C9F7EA18FB084EA15FA195
:101B10004F5F5F4F5FA34EA3E114F10409F0B6CF0E
:101B2000A3C1F70186809780649C7001659CF00CCE
:101B3000749CF00C112446C00894E108F108EEA151
:101B4000FFA18081E82FE295EF70282F2F7051F4CC
:101B5000F0E0EE0FFF1FE80DF91D808191810E94DA
:101B600079032AC0A22EBB248E2F90E0EA14FB0436
:101B700098F4FE2CF3948C01000F111F080D191D11
:101B800006C0F801808191810E947903FA94FF20B8
:101B9000C1F7EE24FF2410C0D22ED3948C01000F85
:101BA000111F080D191DF801808191810E94790390
:101BB000DA94C9F7EA18FB084EA15FA14F5F5F4FA7
:101BC0005FA34EA3E114F10409F0B6CF4DC1EEA11D
:101BD000FFA1849187FF07C0FDA1F8B92B982B9A2C
:101BE0004CA148B905C05BA158B92B982B9A28B8CD
:101BF0002B982B9A86FF07C09DA198B92B982B9AFA
:101C0000ECA1E8B905C0FBA1F8B92B982B9A28B82C
:101C10002B982B9A85FF07C04DA148B92B982B9A7A
:101C20005CA158B905C09BA198B92B982B9A28B8EC
:101C30002B982B9A84FF07C0EDA1E8B92B982B9A1B
:101C4000FCA1F8B905C04BA148B92B982B9A28B82C
:101C50002B982B9A83FF07C05DA158B92B982B9A1C
:101C60009CA198B905C0EBA1E8B92B982B9A28B88C
:101C70002B982B9A82FF07C0FDA1F8B92B982B9ABD
:101C80004CA148B905C05BA158B92B982B9A28B82C
:101C90002B982B9A81FF07C09DA198B92B982B9A5E
:101CA000ECA1E8B905C0FBA1F8B92B982B9A28B88C
:101CB0002B982B9A80FF07C04DA148B92B982B9ADF
:101CC0005CA158B905C08BA188B92B982B9A28B86C
:101CD0002B982B9AEEA1FFA13196FFA3EEA3285FCC
:101CE0003F4F49A15AA12417350708F470CFBCC053
:101CF000EEA1FFA1808187FF07C0FDA1F8B92B9855
:101D00002B9A4CA148B905C05BA158B92B982B9AC6
:101D100028B82B982B9A86FF07C09DA198B92B98BD
:101D20002B9AECA1E8B905C0FBA1F8B92B982B9A26
:101D300028B82B982B9A85FF07C04DA148B92B983E
:101D40002B9A5CA158B905C09BA198B92B982B9AE6
:101D500028B82B982B9A84FF07C0EDA1E8B92B98DF
:101D60002B9AFCA1F8B905C04BA148B92B982B9A26
:101D700028B82B982B9A83FF07C05DA158B92B98E0
:101D80002B9A9CA198B905C0EBA1E8B92B982B9A86
:101D900028B82B982B9A82FF07C0FDA1F8B92B9881
:101DA0002B9A4CA148B905C05BA158B92B982B9A26
:101DB00028B82B982B9A81FF07C09DA198B92B9822
:101DC0002B9AECA1E8B905C0FBA1F8B92B982B9A86
:101DD00028B82B982B9A80FF07C04DA148B92B98A3
:101DE0002B9A5CA158B905C08BA188B92B982B9A66
:101DF00028B82B982B9AEEA1FFA13196FFA3EEA352
:101E0000285F3F4F49A15AA12417350708F470CF26
:101E10002BC0649C9001659C300D749C300D112486
:101E200012C08EA19FA10196FC01849131979491DB
:101E300088B92B982B9A98B92B982B9A3296FFA396
:101E4000EEA3215030402115310559F70DC0F601A0
:101E500064817581649CA001659C500D749C500D3B
:101E600011248CE20E943F04A7960FB6F894DEBFBF
:101E70000FBECDBFCF91DF911F910F91FF90EF90DB
:101E8000DF90CF90BF90AF909F908F907F906F909A
:101E90005F904F903F902F9008952F923F924F92D6
:101EA0005F926F927F928F929F92AF92BF92CF92EA
:101EB000DF92EF92FF920F931F93DF93CF93CDB7F3
:101EC000DEB7C455D0400FB6F894DEBF0FBECDBF0D
:101ED000382F4A015B01122F013021F40E945A0A67
:101EE0000C947818002311F40C947818422F417048
:101EF00061964FAF6197243020F4223008F042C041
:101F00006EC0283030F12C3018F0CC24DD247BC09A
:101F10009C012A963FAF2EAF2A97D9012D913C9173
:101F2000119712964D905C9013971496BC916496FD
:101F3000BFAF64972A96EEADFFAD2A97F5816596FF
:101F4000FFAF6597CC24DD24EE24FF242224332424
:101F500062C09C011901D9012D913C9111971296F3
:101F60004D905C9013971496BC916496BFAF6497A4
:101F7000F101F5816596FFAF6597CC24DD24EE2451
:101F8000FF2445C09C017901D9012D913C91119705
:101F900012964D905C9013971496BC916496BFAFC7
:101FA0006497F701F5816596FFAF6597D70117969E
:101FB000BC916096BFAF6097F701F6812F96FFAF97
:101FC0002F97D7011996BC912E96BFAF2E97F70188
:101FD000F0852D96FFAF2D97CC24DD2416C09C01F3
:101FE0006901D9012D913C91119712964D905C9009
:101FF00013971496BC916496BFAF6497F601F58170
:102000006596FFAF6597EE24FF24222433242A9699
:102010001FAE1EAE2A97602E7724D5011197469CDD
:10202000F001479CF00D569CF00D1124B401615055
:102030007040269DC001279D900D369D900D112466
:102040009B01280F391FAD014E0F5F1FC501B40161
:102050000E94E7058CE20E946F03153009F492C5D7
:102060001630A8F4123059F1133050F4112311F442
:102070000C946C18113011F00C9478180C942918E9
:102080001330F9F0143011F00C9478183DC6183064
:1020900009F4DDC2193040F4163009F49AC417303F
:1020A00011F00C947818A3C31A3009F400C11A3047
:1020B00008F4EAC11B3011F00C94781804C010E841
:1020C00086C710E82EC72A96AEADBFAD2A971696E2
:1020D0002D913C911797DE011196AE014F5D5F4F38
:1020E000F901849131962E5F3F4FE491FE2FE0E09D
:1020F00090E08E2B9F2B8D939D93A417B50781F7AE
:1021000027961FAE2797B2C02A96AEADBFAD2A97CD
:10211000CD90DC902796BFAD2797BB2311F08301AC
:102120000BC028961FAE28977CC0F4018081918156
:102130000E9479030150104001151105B1F7089470
:10214000A11CB11C0894C108D108EBCF0894C108A8
:10215000D108C114D10409F43FC0F5018491F82FCE
:10216000FF706396FFAF639782958F70E82EFF2410
:10217000EE0CFF1C81E090E08C0F9D1FE80EF91E15
:10218000830107C0D7018D919C910E947903015072
:10219000104001151105B1F76396BFAD6397EB2EA3
:1021A000FF24EE0CFF1CE1E0F0E0EC0FFD1FEE0E53
:1021B000FF1E830107C0D7018D919C910E94790376
:1021C0000150104001151105B1F70894A11CB11C74
:1021D0000894C108D10825C0F501D4908D2D8295B1
:1021E0008F70E82EFF24EE0CFF1C81E090E08C0F36
:1021F0009D1FE80EF91E830107C0D7018D919C91A8
:102200000E9479030150104001151105B1F7BD2D51
:10221000BF706396BFAF6397E1E02896EFAF289752
:1022200004C0C114D10409F091CF089421083108E9
:102230002114310441F064968FAD649765969FAD8B
:102240006597FC015F012114310409F05DCF08940A
:10225000410851086496AFAE64976596BFAE659726
:102260002896FFAD28972796FFAF27974114510472
:1022700009F43EC763964FAD6397842E9924880C6A
:10228000991C81E090E08C0F9D1F880E991E64962A
:102290008FAD649765969FAD6597FC015F012796AA
:1022A0009FAD279728969FAF28971301CCCF2A96EA
:1022B000AEADBFAD2A9716962D913C911797DE01D2
:1022C0001196AE014F5D5F4FF901849131962E5FFB
:1022D0003F4FE491FE2FE0E090E08E2B9F2B8D93FB
:1022E0009D93A417B50781F726961FAE2697ADC01C
:1022F0002A96AEADBFAD2A97CD90DC902696BFADA5
:102300002697BB2311F0830109C0AA247AC0F101EA
:10231000808191810E9479030150104001151105BF
:10232000B1F70894811C911C0894C108D108EDCF25
:102330000894C108D108D401BC90C114D10409F497
:102340003FC0BB2DBF706396BFAF6397B2946FE081
:10235000B622EB2CFF24EE0CFF1CE1E0F0E0EC0FCA
:10236000FD1FEE0EFF1E830107C0D7018D919C91CA
:102370000E9479030150104001151105B1F76396D1
:10238000BFAD63970B2F10E0000F111FE1E0F0E0ED
:10239000EC0FFD1F0E0F1F1F730108C0D8018D9198
:1023A0009C910E9479030894E108F108E114F1047A
:1023B000A9F70894811C911C0894C108D10821C078
:1023C0008B2D82958F70E82EFF24EE0CFF1CE1E030
:1023D000F0E0EC0FFD1FEE0EFF1E830107C0D701DA
:1023E0008D919C910E9479030150104001151105B7
:1023F000B1F7BB2DBF706396BFAF6397AA24A394B8
:1024000004C0C114D10409F093CFE9A9FAA9319706
:10241000FAABE9ABEF2B41F064968FAD649765960C
:102420009FAD65979C01490189A99AA9892B09F05B
:102430005FCF08944108510864968FAE6497659603
:102440009FAE65972696AFAE26974114510409F4C6
:102450004FC663969FAD6397292E3324220C331CFD
:10246000A1E0B0E0AC0FBD1F2A0E3B1E64968FADFD
:10247000649765969FAD65979C0149012696AFAC20
:1024800026977AAA69AAD0CF2A96EEADFFAD2A97F1
:102490000680F781E02D2C96FFAFEEAF2C972496A7
:1024A0001FAE2497B3C02A96AEADBFAD2A97CD908C
:1024B000DC902496BFAD2497BB2311F083010BC0A1
:1024C00025961FAE25977DC0F401808191810E94E1
:1024D00079030150104001151105B1F70894A11CB2
:1024E000B11C0894C108D108EBCF0894C108D108E9
:1024F000C114D10409F440C0F5018491F82FFF7094
:102500006396FFAF639782958F70E82EFF24EE0CE1
:10251000FF1C2C968EAD9FAD2C97E80EF91E830103
:1025200007C0D7018D919C910E9479030150104002
:1025300001151105B1F76396BFAD63970B2F10E03E
:10254000000F111F2C96EEADFFAD2C970E0F1F1F25
:10255000730108C0D8018D919C910E947903089461
:10256000E108F108E114F104A9F70894A11CB11CD9
:102570000894C108D10825C0F501D4908D2D82950D
:102580008F70E82EFF24EE0CFF1C2C968EAD9FADB5
:102590002C97E80EF91E830107C0D7018D919C91FD
:1025A0000E9479030150104001151105B1F7BD2DAE
:1025B000BF706396BFAF6397E1E02596EFAF2597B5
:1025C00004C0C114D10409F090CF08942108310847
:1025D0002114310441F064968FAD649765969FADE8
:1025E0006597FC015F012114310409F05CCF089468
:1025F000410851086496AFAE64976596BFAE659783
:102600002596FFAD25972496FFAF249741145104DA
:1026100009F46EC563964FAD6397842E9924880C98
:10262000991C2C968EAD9FAD2C97880E991E6496A2
:102630008FAD649765969FAD6597FC015F01249609
:102640009FAD249725969FAF25971301CCCF2A964F
:10265000AEADBFAD2A9716960D90BC91A02DB8AB2C
:10266000AFA723961FAE2397A5C02A96EEADFFAD68
:102670002A97C080D1802396FFAD2397FF2311F0C6
:10268000830109C0AA2472C0D1018D919C910E943E
:1026900079030150104001151105B1F70894811C10
:1026A000911C0894C108D108EDCF0894C108D10845
:1026B000F401B080C114D104D1F1FB2DFF706396F9
:1026C000FFAF6397B294FFE0BF22EB2CFF24EE0C28
:1026D000FF1C8FA598A9E80EF91E830107C0D7013A
:1026E0008D919C910E9479030150104001151105B4
:1026F000B1F76396BFAD6397EB2EFF24EE0CFF1C82
:10270000EFA5F8A9EE0EFF1E830107C0D7018D913A
:102710009C910E9479030150104001151105B1F7F9
:102720000894811C911C0894C108D1081FC08B2DEE
:1027300082958F70E82EFF24EE0CFF1CEFA5F8A900
:10274000EE0EFF1E830107C0D7018D919C910E9460
:1027500079030150104001151105B1F7BB2DBF7071
:102760006396BFAF6397AA24A39404C0C114D10495
:1027700009F09BCFEDA5FEA53197FEA7EDA7EF2BA6
:1027800041F064968FAD649765969FAD65979C0107
:1027900049018DA59EA5892B09F067CF08944108B2
:1027A000510864968FAE649765969FAE65972396A1
:1027B000AFAE23974114510409F49AC463969FADB8
:1027C0006397292E3324220C331CAFA5B8A92A0EF7
:1027D0003B1E64968FAD649765969FAD65979C018F
:1027E00049012396AFAC23977EA66DA6D2CFF10107
:1027F00026813781DE011196AE014F5D5F4FF901F1
:10280000849131962E5F3F4FE491FE2FE0E090E0FF
:102810008E2B9F2B8D939D93A417B50781F7FFEF08
:102820002196FFAF219719AEBAC0D1012D913C91ED
:1028300084C0B4E1BD1570F4F40184910894811C46
:10284000911CF82FF295FF706296FFAF62974FE0F0
:10285000D42ED82259010894A108B108DD20D1F462
:1028600062964FAD6297E42EFF24EE0CFF1C81E0D0
:1028700090E08C0F9D1FE80EF91E830107C0D70161
:102880008D919C910E947903015010400115110512
:10289000B1F750C00D2D10E06296BFAD62978B2F3F
:1028A00090E0A016B10618F10F5F1F4F069D600162
:1028B000079DD00C169DD00C1124015010407C01B6
:1028C000EE0CFF1CE1E0F0E0EC0FFD1FEE0EFF1E32
:1028D00008C0D7018D919C910E9479030894C1088A
:1028E000D108C114D104A9F7A01AB10A23C0269DAA
:1028F0008001279D100D369D100D11247C01EE0CDA
:10290000FF1CE1E0F0E0EC0FFD1FEE0EFF1E07C024
:10291000D7018D919C910E947903015010400115BF
:102920001105B1F7BA2DB095BD0D2296BFAF229714
:10293000AA24BB24DD24DA9495012115310509F080
:1029400078CFEBA5FCA53197FCA7EBA7EF2B79F08F
:1029500064968FAD649765969FAD6597FC014F01B6
:102960002196DFAC2197F9AD6296FFAF62978BA5F8
:102970009CA5892B09F059CF089441085108649609
:102980008FAE649765969FAE659722969FAD22970E
:1029900021969FAF21976296AFAD6297A9AF411480
:1029A000510409F4A5C364968FAD649765969FADF5
:1029B0006597FC014F012196DFAC2197B9AD629676
:1029C000BFAF62977CA66BA6EFEF2296EFAF229780
:1029D000CECFD10116962D913C911797DE0111961D
:1029E000AE014F5D5F4FF901849131962E5F3F4FED
:1029F000E491FE2FE0E090E08E2B9F2B8D939D9332
:102A0000A417B50781F7FFEFFEAF1FAAA7C0D1013A
:102A10002D913C917BC0B4E1BD1550F4F40181913E
:102A20004F01F82FF295FF70F8AF1FE0D12ED8229A
:102A300059010894A108B108DD20C9F448AD042F5C
:102A400010E0000F111F81E090E08C0F9D1F080F18
:102A5000191F730108C0D8018D919C910E947903C0
:102A60000894E108F108E114F104A9F74CC00D2D18
:102A700010E0B8AD8B2F90E0A016B10618F10F5FF3
:102A80001F4F069D6001079DD00C169DD00C112490
:102A9000015010407C01EE0CFF1CE1E0F0E0EC0F77
:102AA000FD1FEE0EFF1E08C0D7018D919C910E9464
:102AB00079030894C108D108C114D104A9F7A01A58
:102AC000B10A21C0269D8001279D100D369D100D55
:102AD00011247C01EE0CFF1CE1E0F0E0EC0FFD1F87
:102AE000EE0EFF1E07C0D7018D919C910E947903C5
:102AF0000150104001151105B1F7BA2DB095BD0D6B
:102B0000BFAFAA24BB24DD24DA9495012115310539
:102B100009F081CFE9A5FAA53197FAA7E9A7EF2B2C
:102B200059F064968FAD649765969FAD65979C014B
:102B30004901DEACFFA9F8AF89A59AA5892B09F058
:102B400066CF08944108510864968FAE64976596E5
:102B50009FAE65979FAD9EAFA8ADAFAB411451043A
:102B600009F4C6C264968FAD649765969FAD65976C
:102B70009C014901DEACBFA9B8AF7AA669A6EFEF08
:102B8000EFAFDACFD10116960D90BC91A02DB8A76A
:102B9000AFA3BFEFBCAF1DAAA3C0F101208131815B
:102BA00077C0F4E1FD1560F4F40184910894811C70
:102BB000911CF82FF295FF70FEABEFE0DE2ED822CD
:102BC00059010894A108B108DD20B9F44EA9042FD9
:102BD00010E0000F111F8FA198A5080F191F730196
:102BE00008C0D8018D919C910E9479030894E10856
:102BF000F108E114F104A9F748C00D2D10E0BEA9B9
:102C00008B2F90E0A016B10608F10F5F1F4F069DB5
:102C10006001079DD00C169DD00C1124015010406E
:102C20007C01EE0CFF1CEFA1F8A5EE0EFF1E08C004
:102C3000D7018D919C910E9479030894C108D10815
:102C4000C114D104A9F7A01AB10A1FC0269D8001A2
:102C5000279D100D369D100D11247C01EE0CFF1CDC
:102C6000EFA1F8A5EE0EFF1E07C0D7018D919C9134
:102C70000E9479030150104001151105B1F7BA2DDA
:102C8000B095BD0DBDAFAA24BB24DD24DA94950117
:102C90002115310509F085CFEBA1FCA13197FCA3EB
:102CA000EBA3EF2B59F064968FAD649765969FADBB
:102CB0006597FC014F01DCACFDA9FEAB8BA19CA18B
:102CC000892B09F06ACF08944108510864968FAEA9
:102CD000649765969FAE65979DAD9CAFAEA9ADAB71
:102CE0004114510409F404C264968FAD649765964B
:102CF0009FAD6597FC014F01DCACBDA9BEAB7CA2CA
:102D00006BA2EFEFEDAFDACFD10116960D90BC912B
:102D1000A02DBAA3A9A3BFEFBAAF1BAAA0C0F1010F
:102D20002081318174C0F4E1FD1550F4D4018D91FE
:102D30004D01B82FB295BF70BCAB4FE0D42ED82256
:102D400059010894A108B108DD20B1F4ECA9EE2ED8
:102D5000FF24EE0CFF1C89A19AA1E80EF91E830145
:102D600007C0D7018D919C910E94790301501040BA
:102D700001151105B1F748C00D2D10E0BCA98B2F2E
:102D800090E0A016B10608F10F5F1F4F069D60018D
:102D9000079DD00C169DD00C1124015010407C01D1
:102DA000EE0CFF1CE9A1FAA1EE0EFF1E08C0D70130
:102DB0008D919C910E9479030894C108D108C11497
:102DC000D104A9F7A01AB10A1FC0269D8001279D32
:102DD000100D369D100D11247C01EE0CFF1CE9A195
:102DE000FAA1EE0EFF1E07C0D7018D919C910E94A3
:102DF00079030150104001151105B1F7BA2DB095B6
:102E0000BD0DBBAFAA24BB24DD24DA9495012115A6
:102E1000310509F088CFEDA1FEA13197FEA3EDA306
:102E2000EF2B59F064968FAD649765969FAD6597CB
:102E30009C014901DAACFBA9FCAB8DA19EA1892BB9
:102E400009F06DCF08944108510864968FAE6497DD
:102E500065969FAE65979BAD9AAFACA9ABAB41149D
:102E6000510409F445C164968FAD649765969FAD92
:102E700065979C014901DAACBBA9BCAB7EA26DA2EF
:102E8000EFEFEBAFDACFD7014D915C91349129C0D0
:102E9000BB2351F06096AFAD6097A8B92B982B9AE1
:102EA0002F96AFAD2F9709C02E96AFAD2E97A8B92C
:102EB0002B982B9A2D96AFAD2D97A8B92B982B9ABE
:102EC0000197009729F7269551F431966196BFAD89
:102ED0006197BB2311F0349101C0308120E841504B
:102EE00050404115510521F0C301B22FB323E9CF62
:102EF0006150704041F064968FAD649765969FADC8
:102F00006597FC01212F6115710509F0BCCF08946C
:102F1000410851086496EFAF64976596FFAF6597D7
:102F2000122F4114510409F4E3C064968FAD6497E5
:102F300065969FAD6597FC01212FB301E4CFD701C2
:102F40004D915C9125C08081892359F06096BFAD79
:102F50006097B8B92B982B9A2F968FAD2F9788B979
:102F60000AC02E96AFAD2E97A8B92B982B9A2D9606
:102F7000BFAD2D97B8B92B982B9A21503040211511
:102F8000310509F7969511F4319690E8415050407B
:102F90004115510511F09301F2CF6150704049F095
:102FA00064968FAD649765969FAD65979C01F90116
:102FB000912F6115710509F0C2CF0894410851089D
:102FC0006496EFAF64976596FFAF6597192F41142C
:102FD000510409F48DC064968FAD649765969FADDA
:102FE00065979C01F901912FB301E3CFF601408170
:102FF0005181F901BA010CC008B92B982B9A18B964
:103000002B982B9A01970097B9F732966150704030
:103010006115710531F0C301319604913197149116
:10302000F2CF440F551F240F351F119739F06496C6
:103030008FAD649765969FAD65979C011097B1F62B
:1030400008944108510864962FAF649765963FAF86
:1030500065974114510409F44BC064968FAD649791
:1030600065969FAD65979C01D301E8CFD6016D9120
:103070007C91F901DB010FC0818188B92B982B9AD3
:10308000808188B92B982B9A4150504041155105A9
:1030900099F732961197109711F0A301F7CF660FA9
:1030A000771F260F371F0894E108F108E114F10497
:1030B00039F064968FAD649765969FAD65979C01D6
:1030C000E114F10499F608944108510864962FAF71
:1030D000649765963FAF65974114510449F0649633
:1030E0008FAD649765969FAD65979C017301E8CF9E
:1030F000CC5ADF4F0FB6F894DEBF0FBECDBFCF91D5
:10310000DF911F910F91FF90EF90DF90CF90BF90D4
:10311000AF909F908F907F906F905F904F903F9077
:103120002F9008954F925F926F927F928F929F920D
:10313000AF92BF92CF92DF92EF92FF920F931F93C5
:10314000CF93DF9369017A0158019B01AC0186019D
:10315000E7014B018C0C9D1C7C01EC0EFD1EB401A3
:10316000C7012901401A510A3A016C1A7D0AA501CA
:103170000E94D307CD2829F0B201C701A5010E9402
:10318000D307209729F0B401C301A5010E94D307FA
:10319000012B39F0CD2B29F0B201C301A5010E940A
:1031A000D307DF91CF911F910F91FF90EF90DF90A8
:1031B000CF90BF90AF909F908F907F906F905F90D7
:1031C0004F9008954F925F926F927F928F929F924D
:1031D000AF92BF92CF92DF92EF92FF920F931F9325
:1031E000CF93DF932B013C0149015A010E949218B1
:1031F0008A149B0431F09501A401C301B2010E941D
:103200009218DF91CF911F910F91FF90EF90DF9077
:10321000CF90BF90AF909F908F907F906F905F9076
:103220004F9008952F923F924F925F926F927F92AC
:103230008F929F92AF92BF92CF92DF92EF92FF92C6
:103240000F931F93CF93DF932B013C01190144236C
:1032500021F4A9010E94D30726C0842F90E0CC2737
:10326000DD27C81BD90B4C01AA24BB2475016401BE
:10327000C301B201A701960181010E94E218C501B4
:103280000196C80FD91FCA0DDB1DD7FD07C0C8198D
:10329000D909089481089108C819D909881699068E
:1032A00010F05C01E3CFDF91CF911F910F91FF9060
:1032B000EF90DF90CF90BF90AF909F908F907F90D6
:1032C0006F905F904F903F902F900895FF920F93D3
:1032D0001F93DF93CF93CDB7DEB76E970FB6F894F9
:1032E000DEBF0FBECDBFF82E85B7806885BF85B71E
:1032F000806885BF8FE784B98FEF87B988E385B988
:1033000080E89BEB0197F1F72A9A80E095E02CE2A8
:1033100031E0F9013197F1F70197D9F788E20E947E
:103320006F0381E10E946F038BEC0E946F0311E039
:1033300018B92B982B9A80EC0E946F0386E288B90B
:103340002B982B9A08E008B92B982B9A81EC0E94B5
:103350006F0380E188B92B982B9A85EC0E946F034C
:1033600085E388B92B982B9A8EE388B92B982B9AF2
:1033700086E30E946F0388E488B92B982B9A80EB30
:103380000E946F038AE488B92B982B9A81EB0E94E4
:103390006F0318B82B982B9A8BE188B92B982B9A2E
:1033A00086EB0E946F038AE088B92B982B9A82E8FB
:1033B00088B92B982B9A87E288B92B982B9A18B842
:1033C0002B982B9A87EC0E946F0385EB88B92B987A
:1033D0002B9A86EF0E946F0318B92B982B9A18B876
:1033E0002B982B9AF0FE02C008B901C018B82B9890
:1033F0002B9A82EF0E946F0318B82B982B9A86E2C3
:103400000E946F0381E088B92B982B9A8AE30E946F
:103410006F0385E588B92B982B9ADE011196EBE4B2
:10342000F1E08FE001900D928150E1F780EEBE0156
:103430006F5F7F4F4FE00E94B805DE015096ECE3CE
:10344000F1E08FE001900D928150E1F781EEBE0135
:10345000605F7F4F4FE00E94B80584E30E946F03D6
:1034600084EB0E946F0318B82B982B9A87EB0E946D
:103470006F0387E088B92B982B9A80E090E00E9438
:10348000F90889E20E946F038CE291E02CE231E0BE
:10349000F9013197F1F70197D9F781E00E94900384
:1034A0006E960FB6F894DEBF0FBECDBFCF91DF9101
:1034B0001F910F91FF900895CF93DF9380E00E94BA
:1034C0000E0660E070E080E090E02FE030E04FE733
:1034D00050E00E94E7058CE260E070E040E058E0D8
:1034E0000E943F0460E270E080E090E020EA30E07B
:1034F0004FEF50E00E94E7058CE20E946F03C0E0AE
:10350000D0E00AC0FE01EE0FFF1F85919591A591B5
:10351000B4910E9479032196D7FFF4CFDF91CF9128
:103520000895882311F458980895813009F4589A21
:103530000895882311F459980895813009F4599A0F
:103540000895569A579A83E88093B00083E0809359
:10355000B10008958093B3000895AAE7B0E09C916C
:1035600097609C93ECE7F0E080838081806C80839F
:103570008081806280838C9180688C930895809193
:103580007A00806480937A0080917A0086FDFCCF77
:103590002091780030917900C901089583E090E08E
:1035A0000E94AD1A80917A00806480937A008091A5
:1035B0007A0086FDFCCF809178009091790060E0E0
:1035C00074E00E945D25882777FD8095982F0E94E2
:1035D0009722089582E090E00E94AD1A80917A00CF
:1035E000806480937A0080917A0086FDFCCF809180
:1035F00078009091790060E074E00E945D25882752
:1036000077FD8095982F0E949722089580E090E0A2
:103610000E94AD1A80917A00806480937A00809134
:103620007A0086FDFCCF809178009091790060E06F
:1036300074E00E945D25882777FD8095982F0E9471
:103640009722089581E090E00E94AD1A80917A005F
:10365000806480937A0080917A0086FDFCCF80910F
:1036600078009091790060E074E00E945D258827E1
:1036700077FD8095982F0E949722089581E090E031
:103680000895EF92FF920F931F930E94061B7B01F8
:103690008C010E94221B9B01AC01C801B7010E9452
:1036A0006D211F910F91FF90EF900895EF92FF927F
:1036B0000F931F930E94CE1A7B018C010E94EA1A7D
:1036C0009B01AC01C801B7010E9440211F910F91DD
:1036D000FF90EF900895AF92BF92CF92DF92EF925A
:1036E000FF920F931F935B016C010E94F5227B01F7
:1036F0008C01B701882777FD8095982F0E9497222B
:103700009B01AC01C601B5010E940F2120E030E011
:1037100040E251E40E946D210E94DC25670103E034
:10372000CC0CDD1C0A95E1F7EE0CFF1CCE0CDF1C67
:103730000E94F5229B01AC012C0D3D1DC9011F917A
:103740000F91FF90EF90DF90CF90BF90AF900895D2
:103750002F923F924F925F926F927F928F929F92A1
:10376000AF92BF92CF92DF92EF92FF920F931F938F
:10377000DF93CF93CDB7DEB72C970FB6F894DEBFAB
:103780000FBECDBFD42EB52E6A877B8729011801C5
:10379000F986E8867C2C6A2C8E010F5F1F4FB801DA
:1037A0004AE050E00E94BB252D2D3B2DC9019C0114
:1037B000AA2031F190E0B80101C09F5FFB01E90F41
:1037C000F11D80818823C9F7A72CBB2483E0AA0CB4
:1037D000BB1C8A95E1F70FC080E2A9016A857B8551
:1037E00092018101E884F984C72C9C870E942A06F3
:1037F0009C859F5F940149018A0C9B1C961560F380
:10380000422FCE010196532F6A857B85920181015B
:10381000E884F984C72C0E949C062C960FB6F89475
:10382000DEBF0FBECDBFCF91DF911F910F91FF90F3
:10383000EF90DF90CF90BF90AF909F908F907F9050
:103840006F905F904F903F902F900895AF92CF92DE
:10385000EF92FF920F931F93882351F45C9883E0BB
:1038600090E049E051E065E970E020E030E00BC015
:103870008130A9F45C9A83E090E049E051E065E989
:1038800070E02FEF37E000E010E0FCE7EF2EF0E013
:10389000FF2EE4E0CE2EAA24A3940E94A81B1F9121
:1038A0000F91FF90EF90CF90AF900895AF92CF928D
:1038B000EF92FF920F931F93882351F45B9882E05D
:1038C00090E049E051E065E670E020E030E00BC0B8
:1038D0008130A9F45B9A82E090E049E051E065E62E
:1038E00070E02FEF37E000E010E0BCE7EB2EB0E037
:1038F000FB2EA4E0CA2EAA24A3940E94A81B1F9109
:103900000F91FF90EF90CF90AF900895AF92CF922C
:10391000EF92FF920F931F93882351F45A9881E0FE
:1039200090E049E051E065E370E020E030E00BC05A
:103930008130A9F45A9A81E090E049E051E065E3D2
:1039400070E02FEF37E000E010E0FCE7EF2EF0E052
:10395000FF2EE4E0CE2EAA24A3940E94A81B1F9160
:103960000F91FF90EF90CF90AF9008952F923F92DC
:103970004F925F926F927F928F929F92AF92CF926F
:10398000DF92EF92FF920F931F93DF93CF93CDB708
:10399000DEB7C054D0400FB6F894DEBF0FBECDBF27
:1039A00080E00E94661981E00E940E0680E090E0AF
:1039B0000E94F90811B88FEF82B98AB91BB80E942A
:1039C000A11A5D9A80E00E94861C80E00E94561C2D
:1039D00080E00E94261C62E070E082E390E02DE42B
:1039E00030E04EE450E00FEF17E00E94A10864E0E1
:1039F00070E084E390E02BE430E04CE450E000E041
:103A000010E00E94A10862E070E080E590E02DE403
:103A100030E04CE650E00FEF17E00E94A10864E0B0
:103A200070E082E590E02BE430E04AE650E000E010
:103A300010E00E94A10862E070E08EE690E02DE4C4
:103A400030E04AE850E00FEF17E00E94A10864E080
:103A500070E080E790E02BE430E048E850E000E0E0
:103A600010E00E94A10869EF70E080E090E029EF8B
:103A700030E040EF50E00FEF17E00E94E90780E0F0
:103A800091E047E350E060E070E02FEF3FEF00E0AF
:103A900010E0ECE7EE2EE0E0FE2ECC24C3940E9472
:103AA0009C068BE091E047E350E068E070E02FEF88
:103AB0003FEFB2E0CB2E0E949C0687E191E045E506
:103AC00050E06EE170E02FEF37E0CC24C3940E9409
:103AD0009C068BE291E044E051E060E070E020EE73
:103AE0003FEFA4E7EA2EA3E0FA2E0E949C0682E3B1
:103AF00091E047E051E068E070E020EE3FEF0E9487
:103B00009C0681E090E04CE251E065E370E020E04B
:103B100030E0FCE7EF2EF0E0FF2EE4E0CE2EAA240A
:103B2000A3940E94A81B16E9D12E61EE7AE784E9DE
:103B30009FE30E946B1B25E030E03EAF2DAFE5E335
:103B4000F0E02196FFAFEEAF219721964CAD5DAD31
:103B50006EAD7FAD21972FEF37E800E010E0BCE7B6
:103B6000EB2EB0E0FB2EA3E0CA2EF2E0AF2E0E94B7
:103B7000A81B29E130E03AAF29AF87E490E09CAF81
:103B80008BAFEBE1F0E0FEABEDAB29E430E038AF1A
:103B90002FAB69AD7AAD8BAD9CAD2DA93EA94FA9D8
:103BA00058AD0FE118EF0E94A10888E390E09AABAE
:103BB00089ABECE3F0E0FCABEBAB88E391E049A927
:103BC0005AA96BA97CA92FE138EF00E010E0E2E0F0
:103BD000CE2E0E949C060E94CE1A0E946B1B25E0EE
:103BE00030E03EA72DA7E3E5F0E0F8ABEFA74DA549
:103BF0005EA56FA578A92FEF37E8B3E0CB2E0E9422
:103C0000A81B2AE130E03AA729A785E690E09CA707
:103C10008BA7ECE1F0E0FEA3EDA327E630E038A7A8
:103C20002FA369A57AA58BA59CA52DA13EA14FA187
:103C300058A50FE118EF0E94A10888E390E09AA32D
:103C400089A3EAE5F0E0FCA3EBA388E391E049A1B6
:103C50005AA16BA17CA12FE138EF00E010E0A2E0B7
:103C6000CA2E0E949C060E94EA1A0E946B1B25E045
:103C700030E03E8F2D8FE1E7F0E0F8A3EF8F4D8D20
:103C80005E8D6F8D78A12FEF37E8F3E0CF2E0E9485
:103C9000A81B2AE130E03A8F298F83E890E09C8FBF
:103CA0008B8FECE1F0E0FE8BED8B25E830E0388F78
:103CB0002F8B698D7A8D8B8D9C8D2D893E894F89B7
:103CC000588D0FE118EF0E94A10888E390E09A8BCD
:103CD000898BE8E7F0E0FC8BEB8B88E391E0498986
:103CE0005A896B897C892FE138EF00E010E0E2E02F
:103CF000CE2E0E949C060E94411B0E946B1B25E059
:103D000030E03E872D87E5E3F0E0F88BEF874D85C7
:103D10005E856F8578892FEF37E8B3E0CB2E0E9460
:103D2000A81B28E330E03A8729878CE390E09C8742
:103D30008B878AE391E049855A856B857C852FE1E5
:103D400038EFA2E0CA2E0E949C060E94561B0E94D9
:103D50006B1BE5E0F0E0FE83ED8328E330E038877D
:103D60002F834D815E816F8178852FEF37E8F3E0F7
:103D7000CF2E0E94A81B88E390E09A838983EFE30B
:103D8000F0E0FC83EB838AE391E049815A816B8107
:103D90007C812FE138EFE2E0CE2E0E949C060E944B
:103DA000561B0E946B1B35E0232E312C2BE3422E39
:103DB000512CB201A1012FEF37E8B3E0CB2E0E94C6
:103DC000A81B049B07C081E00E94861CA1E0EA2E8C
:103DD000F12C05C080E00E94861CEE24FF24059B88
:103DE00006C081E00E94561C01E010E005C080E0A2
:103DF0000E94561C00E010E0069B06C081E00E9475
:103E0000261C81E090E005C080E00E94261C80E036
:103E100090E0F1E0EF16F10499F501301105C1F4DD
:103E2000019759F00F2EF0E0EF2EF0E0FF2EF0EDAD
:103E30000F2FF1E41F2FF02D55C00F2EF0E0EF2EC5
:103E4000F0E0FF2EF0E20F2FF2E41F2FF02D4AC01A
:103E5000019759F00F2EF0E0EF2EF0E0FF2EF0E08A
:103E60000F2FF1E41F2FF02D3DC00F2EF0E0EF2EAD
:103E7000F0E0FF2EF0EB0F2FF1E41F2FF02D32C0FA
:103E800001301105C1F4019759F00F2EF0E0EF2E2B
:103E9000F0E0FF2EF0E90F2FF1E41F2FF02D22C0EC
:103EA0000F2EF0E0EF2EF0E0FF2EF0E00F2FF2E407
:103EB0001F2FF02D17C0019759F00F2EF0E0EF2EB5
:103EC000F0E0FF2EF0E00F2FF0E01F2FF02D0AC0E2
:103ED0000F2EF0E0EF2EF0E0FF2EF0E60F2FF1E4D2
:103EE0001F2FF02DC801B701A40193010E94672282
:103EF00018167CF480E00E94911A81E00E94991AC1
:103F0000C401B30120E030E040E251E40E944021CE
:103F10001CC0C401B30120E030E040E85FE30E9430
:103F20000F21A80197010E94672218168CF480E0E7
:103F30000E94991A81E00E94911AC401B30120E005
:103F400030E040E251E40E940F213B014C0106C0E9
:103F500080E00E94991A80E00E94911AC801B7017E
:103F6000A40193010E946722181654F4C401B301FE
:103F700020E030E040EF51E40E9440213B014C0141
:103F8000D092B300D2CDA0E0B0E0E9ECFFE10C9418
:103F90008425DC012B01FA019C91923008F439C18F
:103FA000EB018881823008F433C1943069F48430A5
:103FB00009F02FC111969C9111978981981709F4E6
:103FC00028C1AAE5B1E025C1843009F421C18230BD
:103FD000A9F4923009F01DC19A01AD0188E0EA010F
:103FE0000990AE01E90109929E018150C1F7E201F9
:103FF000898111969C918923818308C1923009F4AB
:1040000007C112962D903C901397EB018A819B81FA
:104010001496AD90BD90CD90DC901797EC80FD800C
:104020000E811F819101281B390BB90137FF04C094
:1040300066277727621B730B603271050CF061C035
:10404000121613066CF537014801062E04C096942B
:104050008794779467940A94D2F721E030E040E0A7
:1040600050E004C0220F331F441F551F6A95D2F73A
:1040700021503040404050402E213F2140235123C9
:10408000211531054105510521F021E030E040E0E6
:1040900050E079018A01E628F728082919293CC04F
:1040A000232BD1F1260E371E35014601062E04C002
:1040B00096948794779467940A94D2F721E030E03D
:1040C00040E050E004C0220F331F441F551F6A9583
:1040D000D2F721503040404050402A213B214C2112
:1040E0005D21211531054105510521F021E030E028
:1040F00040E050E059016A01A628B728C828D9280D
:104100000BC0821593052CF01C01AA24BB24650169
:1041100003C0EE24FF24870111969C91D2011196D1
:104120008C91981709F445C0992339F0A80197019B
:104130002A193B094C095D0906C0A60195012E19F3
:104140003F09400B510B57FD08C011823382228278
:1041500024833583468357831DC081E08183338266
:10416000228288279927DC01821B930BA40BB50BB5
:1041700084839583A683B7830DC0220F331F441F0A
:10418000551F24833583468357838281938101970A
:10419000938382832481358146815781DA01C90165
:1041A0000197A109B1098F5F9F4FAF4FBF4328F31C
:1041B0000BC0918333822282EA0CFB1C0C1D1D1D57
:1041C000E482F5820683178383E08083248135812E
:1041D0004681578157FF1AC0C901AA2797FDA095AC
:1041E000BA2F81709070A070B07056954795379532
:1041F0002795822B932BA42BB52B84839583A683A1
:10420000B78382819381019693838283DF0101C00A
:10421000D201CD01CDB7DEB7E2E10C94A025A0E23A
:10422000B0E0E5E1F1E20C94902569837A838B8319
:104230009C832D833E834F835887E9E0EE2EF12C3B
:10424000EC0EFD1ECE010196B7010E946D248E0179
:104250000F5E1F4FCE010596B8010E946D248A891A
:1042600091E089278A8BC701B801AE01475E5F4F95
:104270000E94C31F0E949823A096E6E00C94AC25F0
:10428000A0E2B0E0E6E4F1E20C94902569837A8341
:104290008B839C832D833E834F835887F9E0EF2ED9
:1042A000F12CEC0EFD1ECE010196B7010E946D248B
:1042B0008E010F5E1F4FCE010596B8010E946D243E
:1042C000C701B801AE01475E5F4F0E94C31F0E9445
:1042D0009823A096E6E00C94AC25A0E2B0E0E3E7DA
:1042E000F1E20C94842569837A838B839C832D83EC
:1042F0003E834F835887CE010196BE01675F7F4F93
:104300000E946D24CE010596BE016F5E7F4F0E9414
:104310006D249985923088F089898230C8F0943074
:1043200019F4823051F404C0843029F4923081F4BD
:104330008AE591E0C6C0923049F420E09A858A89E6
:10434000981321E02A87CE010996BBC0823049F438
:1043500020E09A858A89981321E02A8BCE01419624
:10436000B0C02D843E844F8458886D887E888F88A5
:10437000988CEE24FF248701AA24BB24650140E029
:1043800050E060E070E0E0E0F0E0C101817090702A
:10439000892BE9F0E60CF71C081D191D9A01AB01E9
:1043A0002A0D3B1D4C1D5D1D80E090E0A0E0B0E0BB
:1043B000E614F7040805190520F481E090E0A0E078
:1043C000B0E0BA01A901480F591F6A1F7B1FAA0C50
:1043D000BB1CCC1CDD1C97FE08C081E090E0A0E077
:1043E000B0E0A82AB92ACA2ADB2A3196E032F105C0
:1043F00049F0660C771C881C991C56944794379496
:104400002794C3CFFA85EA892B893C898B859C85C3
:10441000280F391F2E5F3F4F17C0CA01817090705F
:10442000892B61F016950795F794E79480E090E06A
:10443000A0E0B0E8E82AF92A0A2B1B2B76956795AD
:10444000579547952F5F3F4F77FDE7CF0CC0440F3F
:10445000551F661F771F17FD4160EE0CFF1C001FE4
:10446000111F21503040403090E0590790E069071B
:1044700090E4790760F32B8F3C8FDB01CA018F77C3
:104480009070A070B07080349105A105B10561F401
:1044900047FD0AC0E114F1040105110529F0405C53
:1044A0005F4F6F4F7F4F40781A8EFE1711F081E0FB
:1044B0008A8F4D8F5E8F6F8F78A383E0898FCE01B7
:1044C00049960E949823A096E2E10C94A025A8E1C9
:1044D000B0E0EDE6F2E20C94902569837A838B8359
:1044E0009C832D833E834F83588789E0E82EF12CEF
:1044F000EC0EFD1ECE010196B7010E946D248E01C7
:104500000F5E1F4FCE010596B8010E946D2489856C
:10451000823040F08989823028F0C701B8010E94BA
:10452000E52401C08FEF6896E6E00C94AC25A8E086
:10453000B0E0EDE9F2E20C948D259B01AC0183E043
:104540008983DA01C9018827B7FD83959927AA27AE
:10455000BB27B82E211531054105510519F482E01C
:1045600089833AC08823A9F0203080E0380780E0B2
:10457000480780E8580729F460E070E080E09FEC8D
:1045800030C0EE24FF248701E21AF30A040B150B56
:1045900002C079018A018EE1C82ED12CDC82CB8247
:1045A000ED82FE820F831887C801B7010E9449235C
:1045B00001971816190684F4082E04C0EE0CFF1C8F
:1045C000001F111F0A94D2F7ED82FE820F83188715
:1045D000C81AD90ADC82CB82BA82CE0101960E9427
:1045E00098232896E9E00C94A925ACE0B0E0EBEF25
:1045F000F2E20C94942569837A838B839C83CE01A9
:104600000196BE016B5F7F4F0E946D248D818230C9
:1046100061F1823050F1843021F48E81882351F190
:104620002EC02F81388537FD20C06E812F31310596
:104630001CF06623F9F023C08EE190E0821B930BFF
:1046400029853A854B855C8504C0569547953795F5
:1046500027958A95D2F76623B1F05095409530950D
:1046600021953F4F4F4F5F4F0EC020E030E040E0BC
:1046700050E009C02FEF3FEF4FEF5FE704C020E0AD
:1046800030E040E050E8B901CA012C96E2E00C9419
:10469000B025EF92FF920F931F937B018C0180E076
:1046A000E81680E0F80681E0080780E0180788F443
:1046B0008FEFE816F1040105110531F028F088E0CC
:1046C00090E0A0E0B0E017C080E090E0A0E0B0E0B3
:1046D00012C080E0E81680E0F80680E0080781E07C
:1046E000180728F088E190E0A0E0B0E004C080E185
:1046F00090E0A0E0B0E020E230E040E050E0281B95
:10470000390B4A0B5B0B04C016950795F794E79499
:104710008A95D2F7F701EE59FE4F8081281B3109A7
:1047200041095109C9011F910F91FF90EF90089520
:10473000DF92EF92FF920F931F93FC01E480F580CC
:1047400006811781D1808081823048F480E090E03A
:10475000A0E1B0E0E82AF92A0A2B1B2BA5C084307F
:1047600009F49FC0823021F4EE24FF24870105C0A4
:10477000E114F1040105110519F4E0E0F0E096C040
:10478000628173819FEF623879070CF05BC022E889
:104790003FEF261B370B2A3131052CF020E030E0AB
:1047A00040E050E02AC0B801A701022E04C076956F
:1047B0006795579547950A94D2F781E090E0A0E07D
:1047C000B0E004C0880F991FAA1FBB1F2A95D2F71B
:1047D0000197A109B1098E219F21A023B123009740
:1047E000A105B10521F081E090E0A0E0B0E09A01E0
:1047F000AB01282B392B4A2B5B2BDA01C9018F77B0
:104800009070A070B07080349105A105B10539F4A5
:1048100027FF09C0205C3F4F4F4F5F4F04C0215C12
:104820003F4F4F4F5F4FE0E0F0E02030A0E03A070D
:10483000A0E04A07A0E45A0710F0E1E0F0E07901B7
:104840008A0127C06038710564F5FB01E158FF4F0C
:10485000D801C7018F779070A070B0708034910537
:10486000A105B10539F4E7FE0DC080E490E0A0E0B9
:10487000B0E004C08FE390E0A0E0B0E0E80EF91EE5
:104880000A1F1B1F17FF05C016950795F794E7949D
:10489000319687E016950795F794E7948A95D1F7B6
:1048A00005C0EE24FF248701EFEFF0E06E2F67953F
:1048B00066276795902F9F77D794DD24D7948E2F06
:1048C0008695492F462B582F5D29B701CA011F91A4
:1048D0000F91FF90EF90DF900895FC01DB01408184
:1048E00051812281622F6F7770E0221F2227221FC1
:1048F0009381892F880F822B282F30E0991F9927C9
:10490000991F11969C93119721153105A9F5411511
:1049100051056105710511F482E037C082E89FEF0F
:1049200013969C938E9312979A01AB0167E0220F26
:10493000331F441F551F6A95D1F783E08C930DC038
:10494000220F331F441F551F12968D919C91139770
:10495000019713969C938E931297203080E038072E
:1049600080E0480780E4580758F314962D933D9350
:104970004D935C93179708952F3F310579F44115B6
:1049800051056105710519F484E08C93089564FF65
:1049900003C081E08C9312C01C9210C02F5730408E
:1049A00013963C932E93129783E08C9387E0440FE9
:1049B000551F661F771F8A95D1F7706414964D9323
:1049C0005D936D937C93179708951F93DC01FB0112
:1049D0009C91923008F447C08081823008F443C033
:1049E000943051F411961C91843099F58181682F8F
:1049F00070E0611B71093FC0843021F0923031F4C6
:104A00008230B9F18181882389F12DC011961C91E2
:104A100011978230F1F081811817D9F412962D91F7
:104A20003C911397828193818217930794F0281702
:104A30003907BCF014968D919D910D90BC91A02DDD
:104A40002481358146815781281739074A075B073A
:104A500018F4112341F00AC082179307A407B50781
:104A600040F4112319F061E070E005C06FEF7FEFB3
:104A700002C060E070E0CB011F910895629FD001F9
:104A8000739FF001829FE00DF11D649FE00DF11D09
:104A9000929FF00D839FF00D749FF00D659FF00DB8
:104AA0009927729FB00DE11DF91F639FB00DE11DA5
:104AB000F91FBD01CF011124089597FB092E072688
:104AC0000AD077FD04D00CD006D000201AF47095DF
:104AD00061957F4F0895F6F7909581959F4F0895C2
:104AE000AA1BBB1B51E107C0AA1FBB1FA617B70714
:104AF00010F0A61BB70B881F991F5A95A9F7809530
:104B00009095BC01CD0108952F923F924F925F92F4
:104B10006F927F928F929F92AF92BF92CF92DF92CD
:104B2000EF92FF920F931F93CF93DF93CDB7DEB732
:104B3000CA1BDB0B0FB6F894DEBF0FBECDBF0994C6
:104B40002A88398848885F846E847D848C849B841D
:104B5000AA84B984C884DF80EE80FD800C811B812B
:104B6000AA81B981CE0FD11D0FB6F894DEBF0FBE5A
:104B7000CDBFED010895FB019F01E8944230C4F0E0
:104B80004532B4F44A3029F497FB1EF49095819590
:104B90009F4F642F77270E947025805D8A330CF029
:104BA000895D8193CB010097A1F716F45DE25193E3
:104BB0001082C9010C94FC2560D0E0F09E37D8F03B
:104BC0009639B8F49E3848F4672F782F8827985F75
:104BD000F9CF86957795679593959539D0F3B62F4C
:104BE000B1706B0F711D811D20F4879577956795C6
:104BF000939512C02CC05CC0DC01FC01672F719141
:104C00007723E1F7329704C07C916D9370836291B2
:104C1000AE17BF07C8F30895882371F4772321F0F6
:104C20009850872B762F07C0662311F499270DC063
:104C30009051862B70E060E02AF09A95660F771FFE
:104C4000881FDAF7880F9695879597F908959F3F03
:104C500031F0915020F4879577956795B795880F37
:104C6000911D9695879597F9089557FD9058440F93
:104C7000551F59F05F3F71F04795880F97FB991FBB
:104C800061F09F3F79F08795089512161306140678
:104C9000551FF2CF4695F1DF08C016161706180605
:104CA000991FF1CF86957105610508940895E894E0
:104CB000BB2766277727CB0197F90895F894FFCF94
:104CC0004D4943524F2D4752494400534D41525490
:104CD000204D455445520043757272656E74204DE7
:104CE00061696E732055736167650041435449568D
:104CF00045004C4F41445300570041000025270513
:104D000010093A784D05180D383A1F1F1A180A0F66
:104D1000064587320A070207050000000000000070
:104D2000000000010202030303030404040404045A
:104D30000404050505050505050505050505050525
:104D40000505060606060606060606060606060605
:104D500006060606060606060606060606060606F3
:104D600006060707070707070707070707070707D5
:104D700007070707070707070707070707070707C3
:104D800007070707070707070707070707070707B3
:104D900007070707070707070707070707070707A3
:104DA0000707080808080808080808080808080885
:104DB0000808080808080808080808080808080873
:104DC0000808080808080808080808080808080863
:104DD0000808080808080808080808080808080853
:104DE0000808080808080808080808080808080843
:104DF0000808080808080808080808080808080833
:104E00000808080808080808080808080808080822
:104E10000808080808080808080808080808080812
:024E2000080880
:00000001FF
